:100000000C9462000C948A000C948A000C948A0070
:100010000C948A000C948A000C948A000C948A0038
:100020000C948A000C948A000C948A000C94130798
:100030000C948A000C948A000C948A000C948A0018
:100040000C94C9060C948A000C948A000C948A00C3
:100050000C948A000C948A000C948A000C948A00F8
:100060000C948A000C948A000000000024002700F1
:100070002A0000000000250028002B0000000008D6
:10008000000201000003040700000000000000005F
:1000900000000000230026002900040404040404D6
:1000A0000404020202020202030303030303010227
:1000B00004081020408001020408102001020408F6
:1000C00010202F0811241FBECFEFD8E0DEBFCDBF18
:1000D00011E0A0E0B1E0E4ECF7E102C005900D9280
:1000E000A432B107D9F721E0A4E2B1E001C01D922A
:1000F000A639B207E1F710E0C2E6D0E004C02197CC
:10010000FE010E94D50BC136D107C9F70E944A08EB
:100110000C94E00B0C94000020E0DC0160FF03C0B5
:1001200001C02D932D936250E0F77040D0F70895F1
:1001300080E991E0089590E0FC01E458FF4F24919C
:10014000FC01E255FF4F3491FC01E656FF4FE4916C
:10015000EE23C9F0222339F0233001F1A8F4213035
:1001600019F1223029F1F0E0EE0FFF1FEE58FF4F9A
:10017000A591B4918FB7F894EC91611126C0309598
:100180003E233C938FBF08952730A9F02830C9F053
:10019000243049F7809180008F7D03C080918000DA
:1001A0008F7780938000DFCF84B58F7784BDDBCFDE
:1001B00084B58F7DFBCF8091B0008F778093B000A6
:1001C000D2CF8091B0008F7DF9CF3E2BDACF3FB7F1
:1001D000F89480914D0190914E01A0914F01B09102
:1001E000500126B5A89B05C02F3F19F00196A11D0F
:1001F000B11D3FBFBA2FA92F982F8827BC01CD0171
:10020000620F711D811D911D42E0660F771F881FCF
:10021000991F4A95D1F708954F925F926F927F92FE
:100220009F92AF92BF92CF92DF92EF92FF920F9385
:100230001F93CF93DF9300D01F92CDB7DEB7F82E78
:100240008091830190918401A0918501B0918601F4
:10025000892B8A2B8B2BD9F00E94E70000917C011F
:1002600010917D0120917E0130917F01601B710B07
:10027000820B930B009183011091840120918501E1
:10028000309186016017710782079307C8F20E94B8
:10029000E70060937C0170937D0180937E019093D1
:1002A0007F01E0918B01F0918C01309759F04091E2
:1002B0008701509188016091890170918A018F2D89
:1002C0000995F82E00917A0110917B014F2C512C49
:1002D000712C612C0115110509F45EC0D8011C9622
:1002E000EC901C9780918101909182018436910558
:1002F00010F41C961C92D801ED91FC91A280B38061
:1003000019821A821B82FF2089F1F8013696D12CBE
:10031000C12C2191222319F19280992001F130E022
:1003200050E040E02F5F3F4F4F4F5F4FC301B2019E
:100330000E948A0B9B01AC01892D90E0B0E0A0E007
:10034000BC01CD016F5F7F4F8F4F9F4F0E948A0B83
:10035000A1E0B0E0AC0FBD1FAC0DBD1D8C93BFEF95
:10036000CB1ADB0A83E0C816D10499F6D8011D9692
:100370004D915C911E9712966D917C919E012F5F1D
:100380003F4FC801F5010995D8011C96EC921C97C6
:1003900014960D911C919ECF8091780190917901D6
:1003A0009C012F5F3F4F309379012093780149974B
:1003B0000CF44AC08FB7F89420917001309171010C
:1003C00040917201509173018FBF8091740190919F
:1003D0007501A0917601B0917701281B390B4A0B6A
:1003E0005B0B21F421E030E040E050E0E091780147
:1003F000F091790188EE93E0E89FB001E99F700DDC
:10040000F89F700D1124072E000C880B990B0E9489
:100410008F0A30938201209381011092790110920A
:1004200078012FB7F8948091700190917101A0919B
:100430007201B09173012FBF809374019093750185
:10044000A0937601B09377010F900F900F90DF91FA
:10045000CF911F910F91FF90EF90DF90CF90BF90C1
:10046000AF909F907F906F905F904F9008958F9284
:100470009F92AF92BF92CF92DF92EF92FF924B0189
:100480005C010E94E7006B017C010E94E7006C198F
:100490007D098E099F09683E734081059105A8F387
:1004A00021E0821A9108A108B10888EEC80E83E005
:1004B000D81EE11CF11C81149104A104B10429F798
:1004C000FF90EF90DF90CF90BF90AF909F908F9074
:1004D0000895CF92DF92EF92FF92CF93DF93EC01DA
:1004E000603282E07807CCF5653B710514F064EB6F
:1004F00070E0898128E830E0281B310987FD3395B9
:10050000220F331F220F331F6901330FEE08FF083C
:100510008A8128E532E0281B310987FD3395220FB7
:10052000331F220F331F032E000C440B550B2C19C5
:100530003D094E095F09DB0177FF02C0B0E0A0E092
:100540000E94870A24EB30E040E050E00E945D0A00
:10055000C20ED31EE41EF51EB601E881EC3070F524
:10056000298188E890E0821B910927FD9395880FE7
:10057000991F880F991F681779077CF02A8188E5F1
:1005800092E0821B910927FD9395880F991F880F90
:10059000991F681779070CF4CB010297880F991FF0
:1005A0004FB7F8942E2F30E0F901EE0FFF1FE20F46
:1005B000F31FE85DFE4F928381834FBFDF91CF91A0
:1005C000FF90EF90DF90CF900895CF93DF93DC0101
:1005D0008C918C3008F06DC0CB01FB01E255FF4FD0
:1005E000249186569F4FFC018491882399F090E0D6
:1005F000880F991FFC01E859FF4FC591D491FC0168
:10060000EE58FF4F859194918FB7F894E881E22BD3
:10061000E8838FBF8C91282F30E0F901EE0FFF1F88
:10062000E20FF31FE85DFE4F962F9F736081607CA1
:10063000692B608311961C92119712961C92129747
:100640002CE0622F0E949A0B829FB001112430E0AF
:1006500020E0AB01420F531FFA01EE0FFF1FE40F22
:10066000F51FE85DFE4F908196FD16C02F5F3F4F4E
:100670002C30310571F781110FC01092800082E09B
:10068000809381001092850010928400B19A80912D
:100690006F00826080936F00EC918E2F90E0FC01E0
:1006A000EE0FFF1FE80FF91FE85DFE4F80818064A9
:1006B00080838C91DF91CF9108950F931F93CF93F7
:1006C000DF93209125012F5F322F37703093250162
:1006D00020FF2BC020E831FD2064347009F0206237
:1006E000205FFC01EC01239600E011E064856623A5
:1006F00029F070E0C8010E94A60B6F5F6187322F5E
:10070000369F030E30E0311D1124311110C01682C6
:10071000662311F0615061873196EC17FD0731F7C0
:10072000DF91CF911F910F91089520E0D4CF3150E8
:100730003683EECF4F925F926F927F928F92AF92FD
:10074000BF92CF92DF92EF920F931F93CF93DF93DD
:100750003C01EB010E94E700F30127853089621B11
:10076000730B6A307105B0F3F894E881F9817BB1BD
:1007700070686BB16F776BB9CA848F812C2D281B81
:10078000822F2F83BF844A805B801D850C85DE8489
:100790001F5F0F5FD3949E813885A984EB844181CC
:1007A000D20120E0C32F522F322F31814427889469
:1007B0003111380F08F43FEF8195889410FD430FF5
:1007C0004795889411FD430F4795889412FD430F78
:1007D0004795889413FD430F4795889414FD430F64
:1007E0004795889415FD430F4795889416FD430F50
:1007F0004795889417FD430F47958894232F11112F
:10080000242F8C0D422F002C7BB900C000C047FF65
:100810006BB930812227889400C0002C6BB931114C
:10082000390F00C0002C7BB900C000C046FF6BB977
:1008300008F43FEF9195889400C0002C6BB900FD3F
:10084000230F00C0002C7BB900C000C045FF6BB96E
:100850002795889401FD230F00C0002C6BB92795C4
:10086000889400C0002C7BB900C000C044FF6BB965
:1008700002FD230F2795889400C0002C6BB903FD5F
:10088000230F00C0002C7BB900C000C043FF6BB930
:100890002795889404FD230F00C0002C6BB9279581
:1008A000889400C0002C7BB900C000C042FF6BB927
:1008B00005FD230F2795889400C0002C6BB906FD19
:1008C000230F00C0002C7BB900C000C041FF6BB9F2
:1008D0002795889407FD230F00C0002C6BB927953E
:1008E000889400C0002C7BB900C000C040FF6BB9E9
:1008F000432F0111422F9A0D00C0002C6BB900C08C
:1009000000C0002C7BB900C000C047FF6BB932812A
:100910002227889400C0002C6BB931113C0F00C015
:10092000002C7BB900C000C046FF6BB908F43FEF54
:10093000EB0DF11D00C0002C6BB9D0FC230F00C0E3
:10094000002C7BB900C000C045FF6BB92795889487
:10095000D1FC230F00C0002C6BB92795889400C0F0
:10096000002C7BB900C000C044FF6BB9D2FC230F40
:100970002795889400C0002C6BB9D3FC230F00C0CE
:10098000002C7BB900C000C043FF6BB92795889449
:10099000D4FC230F00C0002C6BB92795889400C0AD
:1009A000002C7BB900C000C042FF6BB9D5FC230FFF
:1009B0002795889400C0002C6BB9D6FC230F00C08B
:1009C000002C7BB900C000C041FF6BB9279588940B
:1009D000D7FC230F00C0002C6BB92795889400C06A
:1009E000002C7BB900C000C040FF6BB9432FD11071
:1009F000422FC19500C0002C6BB9CE0D00C000C0C5
:100A00007BB900C000C047FF6BB9318122278894B1
:100A100000C0002C6BB93111380F00C0002C7BB91D
:100A200000C000C046FF6BB908F43FEF8195889481
:100A300000C0002C6BB910FD230F00C0002C7BB947
:100A400000C000C045FF6BB92795889411FD230FA6
:100A500000C0002C6BB92795889400C0002C7BB98E
:100A600000C000C044FF6BB912FD230F2795889486
:100A700000C0002C6BB913FD230F00C0002C7BB904
:100A800000C000C043FF6BB92795889414FD230F65
:100A900000C0002C6BB92795889400C0002C7BB94E
:100AA00000C000C042FF6BB915FD230F2795889445
:100AB00000C0002C6BB916FD230F00C0002C7BB9C1
:100AC00000C000C041FF6BB92795889417FD230F24
:100AD00000C0002C6BB92795889400C0002C7BB90E
:100AE00000C000C040FF6BB9432F1111422F8C0D85
:100AF00000C0002C6BB9119709F086CE20EE31E0D2
:100B0000D2010E94BA0BDC01CB01F4E0B695A795A7
:100B100097958795FA95D1F730E020E0B901EAE999
:100B20004E9E040C611D5E9E600D711D1124650DAD
:100B3000711D860F971FA11DB11D893E43E09407CB
:100B4000A105B10508F434C0885E9340A109B1093C
:100B500042E0B695A795979587954A95D1F747E0D6
:100B6000849F080E211D949F200D311D1124290FF3
:100B7000311D6091240170E0860F971F820F931F33
:100B800040917001509171016091720170917301F7
:100B9000292F3327420F531F611D711D4093700190
:100BA00050937101609372017093730180932401DB
:100BB00078940E94E700F301708B6787DF91CF91F3
:100BC0001F910F91EF90DF90CF90BF90AF908F90DB
:100BD0007F906F905F904F900895579A08950F936C
:100BE0001F93CF93DF93CDB7DEB762970FB6F8941C
:100BF000DEBF0FBECDBF8C01F901DC011C968C91CC
:100C00007A8369835C834B835E834D8390819D8768
:100C100091819E8792819F878130F1F4CE01019668
:100C20000E945D0383E0888B1A8A198AD801ED91AE
:100C3000FC910484F585E02DBE016F5F7F4FC801F4
:100C4000099562960FB6F894DEBF0FBECDBFDF9157
:100C5000CF911F910F9108951C861B861A861986C5
:100C600018861F82DFCF0F931F93CF93DF93CDB7EB
:100C7000DEB762970FB6F894DEBF0FBECDBF8C0112
:100C8000F901DC011C968C917A8369835C834B8328
:100C90005E834D8390819D8791819E8792819F87FE
:100CA0008130E9F4CE0101960E945D03188A1A8A08
:100CB000198AD801ED91FC910484F585E02DBE01DF
:100CC0006F5F7F4FC801099562960FB6F894DEBF3B
:100CD0000FBECDBFDF91CF911F910F9108951C865C
:100CE0001B861A86198618861F82E0CF90E080E066
:100CF0000895FC01858596850895CF93DF9300D0F4
:100D000000D000D0CDB7DEB7AB011C821D821E82A1
:100D1000DC01ED91FC910190F081E02D19821A82A5
:100D20001B829E012F5F3F4FBE016C5F7F4F099575
:100D300026960FB6F894DEBF0FBECDBFDF91CF91E0
:100D400008950F931F9390E0FC01E255FF4F6491CB
:100D5000FC01E656FF4FE491F0E0EE0FFF1FE05775
:100D6000FF4F8591949100E412E42FE030E0462F8C
:100D70000E94CF07611571058105910529F06F5F0C
:100D80007F4F8F4F9F4F9F701F910F9108950E942B
:100D9000DB0B1F920F920FB60F9211242F933F93EC
:100DA0008F939F93AF93BF93809170019091710146
:100DB000A0917201B091730130914C0123E0230F97
:100DC0002D3758F50196A11DB11D20934C0180933C
:100DD000700190937101A0937201B093730180919F
:100DE0004D0190914E01A0914F01B091500101969B
:100DF000A11DB11D80934D0190934E01A0934F0111
:100E0000B0935001BF91AF919F918F913F912F91DE
:100E10000F900FBE0F901F90189526E8230F029693
:100E2000A11DB11DD2CF1F920F920FB60F921124A8
:100E30002F933F934F935F936F937F938F939F93E2
:100E4000AF93BF93CF93DF93EF93FF9380912601EE
:100E5000C0912701D0E087FF24C010928500109236
:100E60008400809126018F5F809326018091260166
:100E7000082E000C990B8C179D0724F480912601F5
:100E80008C30C4F180918400909185000496803468
:100E90009C4908F47AC08091840090918500049662
:100EA00076C080912601082E000C990B8C179D07A7
:100EB000C4F6E09126018E2FEE0F990BFC01EE0F88
:100EC000FF1FE80FF91FE85DFE4F808186FFC9CF45
:100ED000E09126018E2FEE0F990BFC01EE0FFF1F04
:100EE000E80FF91FE85DFE4F808160E08F730E947C
:100EF0009B00B7CF2091840030918500E0912601BE
:100F00008E2FEE0F990BFC01EE0FFF1FE80FF91F5C
:100F1000E85DFE4F81819281820F931F909389003B
:100F200080938800E09126018E2FEE0F990BFC0133
:100F3000EE0FFF1FE80FF91FE85DFE4F808186FF6F
:100F400011C0E09126018E2FEE0F990BFC01EE0FE0
:100F5000FF1FE80FF91FE85DFE4F808161E08F738E
:100F60000E949B00FF91EF91DF91CF91BF91AF91D4
:100F70009F918F917F916F915F914F913F912F91B1
:100F80000F900FBE0F901F90189580E49CE99093EE
:100F90008900809388008FEF80932601E3CFCF9262
:100FA000DF92EF92FF920F931F93E82FF92F05C066
:100FB000015011092109310961F19081962394179B
:100FC000B9F305C0015011092109310911F19081CE
:100FD00096239413F7CFC12CD12CE12CF12C0AC00D
:100FE0008FEFC81AD80AE80AF80A0C151D052E0555
:100FF0003F0579F080818623841791F36C2D7D2D38
:101000008E2D9F2D1F910F91FF90EF90DF90CF902D
:10101000089560E070E080E090E01F910F91FF90F4
:10102000EF90DF90CF900895FC01909127019C30C4
:1010300098F481E0890F809327019083892F90E0B5
:10104000FC01EE0FFF1FE80FF91FE85DFE4F88EB74
:101050009BE09283818308958FEF80830895E0E879
:10106000F1E08FEF808312821182148613868FEF56
:101070009FEFDC0187839087A187B28783E991E0A6
:101080000E94140880E991E00E9414088DE891E024
:101090000C941408789484B5826084BD84B5816012
:1010A00084BD85B5826085BD85B5816085BD809133
:1010B0006E00816080936E001092810080918100AB
:1010C00082608093810080918100816080938100A3
:1010D000809180008160809380008091B100846065
:1010E0008093B1008091B00081608093B0008091C6
:1010F0007A00846080937A0080917A008260809385
:101100007A0080917A00816080937A0080917A00E1
:10111000806880937A001092C10060ED77E080E0F3
:1011200090E00E94370280916401811145C01092C5
:101130005601109255018FEF8093590180935A0107
:1011400080935B0180935C0180935D0180935E01DD
:1011500081E080935F011092610110926001109212
:1011600058011092570180917A0190917B01892B4F
:1011700031F483E591E090937B0180937A01E091D3
:101180005101F0915201309721F083E591E0958370
:10119000848383E591E090935201809351011092F2
:1011A00063011092620186E191E090935401809373
:1011B000530181E080936401579A8CE691E090930B
:1011C00056018093550181E090E0909361018093F6
:1011D00060018091830190918401A0918501B0917B
:1011E0008601843C29E09207A105B10520F484EC36
:1011F00099E0A0E0B0E08093830190938401A093F4
:101200008501B09386018FEF8093590180EB809325
:101210005A0180EF80935B018CE380938001C09141
:101220007A01D0917B01209789F08A819B81009778
:1012300049F02D853E85B901660F771F620F731F38
:101240000E948C000C80DD81C02DEDCF6BE070E042
:1012500083E991E00E94E5026AE070E080E991E0B4
:101260000E94E50269E070E08DE891E00E94E502ED
:101270006DE270E080E991E00E94690298EE492EEB
:1012800093E0592E612C712C24E0822E912CC5E024
:10129000D0E033243A942224239487E0A82EB12C62
:1012A00000E010E080916F01811104C184E00E9490
:1012B000A1060E94FB0A6B017C0120E030E04AE7B6
:1012C00054E40E94850B1816E4F4C701B6010E948D
:1012D000C50A9B01AC01285E334041095109A0E5D4
:1012E000B0E00E947C0AA30192010E945D0ACA013B
:1012F000B9016E5C7F4F8F4F9F4F8DE891E00E9448
:1013000069028091000190910101892B99F485E097
:101310000E94A1060E94FB0A20E030E046E954E466
:101320000E94C00A87FF06C081E090E0909301010F
:10133000809300018091000190910101019791F447
:101340006DE270E080E991E00E94690260ED77E073
:1013500080E090E00E94370282E090E090930101EB
:10136000809300018091000190910101029791F416
:1013700066E970E083E991E00E94690268E273E245
:1013800080E090E00E94370283E090E090930101BA
:101390008093000180910001909101010397B1F4C5
:1013A00010926F0130926C0130926D0130926E019B
:1013B000809180010E940C0168EE73E080E090E073
:1013C0000E943702909201018092000180910001F9
:1013D00090910101049789F485E00E94A1060E9482
:1013E000FB0A20E030E84BEB54E40E94850B181612
:1013F00024F4D0930101C0930001809100019091E9
:101400000101059721F520926F016AE570E08DE8F2
:1014100091E00E94690264EF71E080E090E00E9438
:10142000370210926C0110926D0110926E01809142
:1014300080010E940C0168EE73E080E090E00E9461
:10144000370286E090E09093010180930001809143
:10145000000190910101069781F46EE170E083E94B
:1014600091E00E94690268E273E280E090E00E94ED
:101470003702B0920101A092000180910001909189
:101480000101079781F467E870E080E991E00E942C
:10149000690268EB7BE080E090E00E9437021092E6
:1014A0000101109200010115110509F4FBCE0E9403
:1014B0000000EFCE6AE570E020CF052E97FB1EF40A
:1014C00000940E94740A57FD07D00E948F0A07FCFF
:1014D00003D04EF40C94740A5095409530952195A4
:1014E0003F4F4F4F5F4F0895909580957095619550
:1014F0007F4F8F4F9F4F08950E94B10AA59F900D77
:10150000B49F900DA49F800D911D11240895B7FFE5
:101510000C947C0A0E947C0A821B930B0895A1E222
:101520001A2EAA1BBB1BFD010DC0AA1FBB1FEE1F5D
:10153000FF1FA217B307E407F50720F0A21BB30BA8
:10154000E40BF50B661F771F881F991F1A9469F724
:1015500060957095809590959B01AC01BD01CF0180
:101560000895A29FB001B39FC001A39F700D811D7C
:101570001124911DB29F700D811D1124911D08959C
:101580000E94380B08F481E008950E94CC0A689408
:10159000B1110C947F0B08950E94640B88F09F5743
:1015A00098F0B92F9927B751B0F0E1F0660F771F87
:1015B000881F991F1AF0BA95C9F714C0B13091F07D
:1015C0000E947E0BB1E008950C947E0B672F782F5C
:1015D0008827B85F39F0B93FCCF386957795679542
:1015E000B395D9F73EF490958095709561957F4FAE
:1015F0008F4F9F4F0895E89409C097FB3EF4909554
:101600008095709561957F4F8F4F9F4F9923A9F0DB
:10161000F92F96E9BB279395F6958795779567956A
:10162000B795F111F8CFFAF4BB0F11F460FF1BC0AE
:101630006F5F7F4F8F4F9F4F16C0882311F096E941
:1016400011C0772321F09EE8872F762F05C06623EF
:1016500071F096E8862F70E060E02AF09A95660FA8
:10166000771F881FDAF7880F9695879597F9089561
:10167000990F0008550FAA0BE0E8FEEF16161706A3
:10168000E807F907C0F012161306E407F50798F00B
:10169000621B730B840B950B39F40A2661F0232B24
:1016A000242B252B21F408950A2609F4A140A695A0
:1016B0008FEF811D811D089557FD9058440F551FD0
:1016C00059F05F3F71F04795880F97FB991F61F0C4
:1016D0009F3F79F087950895121613061406551F3B
:1016E000F2CF4695F1DF08C0161617061806991FA7
:1016F000F1CF86957105610508940895E894BB279C
:1017000066277727CB0197F908950E94380B08F4D4
:101710008FEF0895DB018F939F930E947C0ABF9106
:10172000AF91A29F800D911DA39F900DB29F900D30
:1017300011240895991B79E004C0991F961708F0A9
:10174000961B881F7A95C9F78095089597FB072EF9
:1017500016F4009407D077FD09D00E94C10B07FC56
:1017600005D03EF4909581959F4F089570956195B1
:101770007F4F08950E94B10AB7FF0895821B930B13
:101780000895AA1BBB1B51E107C0AA1FBB1FA617C8
:10179000B70710F0A61BB70B881F991F5A95A9F71A
:1017A00080959095BC01CD010895EE0FFF1F059027
:1017B000F491E02D099481E090E0F8940C94E00B12
:0417C000F894FFCFCB
:1017C400010000000000C706C706C7067D067906AB
:1017D4007606000000003306EF05ED057D06790668
:0417E40098009A03CC
:107800000C94343C0C94513C0C94513C0C94513CE1
:107810000C94513C0C94513C0C94513C0C94513CB4
:107820000C94513C0C94513C0C94513C0C94513CA4
:107830000C94513C0C94513C0C94513C0C94513C94
:107840000C94513C0C94513C0C94513C0C94513C84
:107850000C94513C0C94513C0C94513C0C94513C74
:107860000C94513C0C94513C11241FBECFEFD8E036
:10787000DEBFCDBF11E0A0E0B1E0ECE9FFE702C060
:1078800005900D92A230B107D9F712E0A2E0B1E065
:1078900001C01D92AD30B107E1F70E942D3D0C945F
:1078A000CC3F0C94003C982F959595959595959582
:1078B000905D8F708A307CF0282F295A8091C0000B
:1078C00085FFFCCF9093C6008091C00085FFFCCF60
:1078D0002093C6000895282F205DF0CF982F809127
:1078E000C00085FFFCCF9093C6000895EF92FF92F1
:1078F0000F931F93EE24FF2487018091C00087FD22
:1079000017C00894E11CF11C011D111D81E4E8164B
:1079100082E4F8068FE0080780E0180770F3E09132
:107920000401F091050109958091C00087FFE9CF1E
:107930008091C6001F910F91FF90EF9008950E94D3
:10794000763C982F8091C00085FFFCCF9093C600B5
:1079500091362CF490330CF09053892F089597555D
:10796000892F08951F930E949F3C182F0E949F3CCF
:107970001295107F810F1F9108951F93182F882350
:1079800021F00E94763C1150E1F71F9108951F935A
:10799000182F0E94763C803249F0809103018F5F5E
:1079A000809303018530C1F01F9108958091C0003C
:1079B00085FFFCCF84E18093C6008091C00085FFE5
:1079C000FCCF1093C6008091C00085FFFCCF80E102
:1079D0008093C6001F910895E0910401F091050184
:1079E00009951F9108950E94763C803241F0809164
:1079F00003018F5F80930301853081F008958091AA
:107A0000C00085FFFCCF84E18093C6008091C00058
:107A100085FFFCCF80E18093C6000895E0910401CA
:107A2000F09105010995089540E951E08823A1F0FE
:107A30002D9A28EE33E0FA013197F1F721503040CA
:107A4000D1F72D9828EE33E0FA013197F1F7215064
:107A50003040D1F7815061F708953F924F925F9285
:107A60006F927F928F929F92AF92BF92CF92DF924E
:107A7000EF92FF920F931F93CF93DF93000080E16B
:107A80008093C4001092C50088E18093C10086E015
:107A90008093C2005098589A259A81E00E94143D24
:107AA00024E1F22E9EE1E92E85E9D82E0FE0C02ECA
:107AB00010E1B12EAA24A394B1E49B2EA6E58A2E50
:107AC000F2E57F2EE0E26E2E79E4572E63E5462E36
:107AD00050E5352E0E94763C8033B1F18133B9F107
:107AE000803409F46FC0813409F476C0823409F41B
:107AF00085C0853409F488C0803531F1823521F1A3
:107B0000813511F1853509F485C0863509F48DC0BC
:107B1000843609F496C0843709F403C1853709F423
:107B200072C1863709F466C0809103018F5F80932C
:107B30000301853079F6E0910401F0910501099582
:107B40000E94763C803351F60E94F33CC3CF0E94E2
:107B5000763C803249F78091C00085FFFCCFF092DF
:107B6000C6008091C00085FFFCCF9092C600809136
:107B7000C00085FFFCCF8092C6008091C00085FFC9
:107B8000FCCF7092C6008091C00085FFFCCF609250
:107B9000C6008091C00085FFFCCF5092C600809146
:107BA000C00085FFFCCF4092C6008091C00085FFD9
:107BB000FCCF3092C6008091C00085FFFCCFB09210
:107BC000C60088CF0E94763C863808F4BDCF0E945C
:107BD000763C0E94F33C7ECF0E94763C803809F4CC
:107BE0009CC0813809F40BC1823809F43CC1883942
:107BF00009F48FC080E00E94C73C6CCF84E10E94F2
:107C0000BD3C0E94F33C66CF85E00E94BD3C0E94D3
:107C1000F33C60CF0E94763C809306010E94763C44
:107C2000809307010E94F33C55CF0E94763C80333D
:107C300009F41DC183E00E94BD3C80E00E94C73C66
:107C400049CF0E94763C809309020E94763C809343
:107C5000080280910C028E7F80930C020E94763C79
:107C6000853409F415C18091080290910902892B8D
:107C700089F000E010E00E94763CF801E85FFE4FDA
:107C800080830F5F1F4F80910802909109020817AF
:107C9000190788F30E94763C803209F045CF809125
:107CA0000C0280FF01C16091060170910701660F0F
:107CB000771F7093070160930601A0910802B091AD
:107CC00009021097C9F0E8E0F1E09B01AD014E0F09
:107CD0005F1FF999FECF32BD21BD819180BDFA9A17
:107CE000F99A2F5F3F4FE417F50799F76A0F7B1F4B
:107CF00070930701609306018091C00085FFFCCF5F
:107D0000F092C6008091C00085FFFCCFB092C60003
:107D1000E1CE83E00E94C73CDDCE82E00E94C73CFA
:107D2000D9CE0E94763C809309020E94763C8093D3
:107D300008028091060190910701880F991F909386
:107D40000701809306010E94763C853409F4A6C0A1
:107D500080910C028E7F80930C020E94763C8032D0
:107D600009F0B8CE8091C00085FFFCCFF092C6002C
:107D7000609108027091090261157105B9F140E046
:107D800050E080910C02A82FA170B82FB27011C0E2
:107D9000BB2309F45CC0E0910601F0910701319624
:107DA000F0930701E09306014F5F5F4F46175707B7
:107DB000E8F4AA2369F3F999FECF209106013091E6
:107DC000070132BD21BDF89A90B58091C00085FFB2
:107DD000FCCF9093C6002F5F3F4F30930701209355
:107DE00006014F5F5F4F4617570718F38091C00099
:107DF00085FDE5CE8091C00085FFF8CFE0CE81E023
:107E00000E94C73C67CE0E94763C803209F08CCE3F
:107E10008091C00085FFFCCFF092C6008091C00029
:107E200085FFFCCFE092C6008091C00085FFFCCFAB
:107E3000D092C6008091C00085FFFCCFC092C600E2
:107E40008091C00085FFFCCFB092C60043CEE09188
:107E50000601F091070194918091C00085FFFCCF4D
:107E60009093C6009CCF80E10E94C73C33CE0E9415
:107E7000763C0E94763C182F0E94763C112309F430
:107E800083C0113009F484C08FE00E94C73C22CE29
:107E900080910C02816080930C02E5CE80910C02EF
:107EA000816080930C0259CF809107018823880F4D
:107EB000880B8A2180930B02809106019091070123
:107EC000880F991F90930701809306018091080203
:107ED00080FF09C080910802909109020196909359
:107EE000090280930802F894F999FECF1127E091D6
:107EF0000601F0910701C8E0D1E08091080290915D
:107F00000902103091F40091570001700130D9F34B
:107F100003E000935700E89500915700017001308D
:107F2000D9F301E100935700E89509901990009169
:107F3000570001700130D9F301E000935700E89534
:107F40001395103498F011270091570001700130FB
:107F5000D9F305E000935700E895009157000170B0
:107F60000130D9F301E100935700E895329602976A
:107F700009F0C7CF103011F00296E5CF112480919F
:107F8000C00085FFB9CEBCCE8EE10E94C73CA2CD19
:0C7F900085E90E94C73C9ECDF894FFCF0D
:027F9C00800063
:040000030000780081
:00000001FF
